{
  "contractName": "TestERC20Token",
  "abi": [
    {
      "constant": true,
      "inputs": [],
      "name": "name",
      "outputs": [
        {
          "name": "",
          "type": "string"
        }
      ],
      "payable": false,
      "stateMutability": "view",
      "type": "function"
    },
    {
      "constant": false,
      "inputs": [
        {
          "name": "_spender",
          "type": "address"
        },
        {
          "name": "_amount",
          "type": "uint256"
        }
      ],
      "name": "approve",
      "outputs": [
        {
          "name": "success",
          "type": "bool"
        }
      ],
      "payable": false,
      "stateMutability": "nonpayable",
      "type": "function"
    },
    {
      "constant": true,
      "inputs": [],
      "name": "totalSupply",
      "outputs": [
        {
          "name": "totalSupply",
          "type": "uint256"
        }
      ],
      "payable": false,
      "stateMutability": "view",
      "type": "function"
    },
    {
      "constant": false,
      "inputs": [
        {
          "name": "_from",
          "type": "address"
        },
        {
          "name": "_to",
          "type": "address"
        },
        {
          "name": "_amount",
          "type": "uint256"
        }
      ],
      "name": "transferFrom",
      "outputs": [
        {
          "name": "success",
          "type": "bool"
        }
      ],
      "payable": false,
      "stateMutability": "nonpayable",
      "type": "function"
    },
    {
      "constant": true,
      "inputs": [],
      "name": "decimals",
      "outputs": [
        {
          "name": "",
          "type": "uint8"
        }
      ],
      "payable": false,
      "stateMutability": "view",
      "type": "function"
    },
    {
      "constant": true,
      "inputs": [
        {
          "name": "_owner",
          "type": "address"
        }
      ],
      "name": "balanceOf",
      "outputs": [
        {
          "name": "balance",
          "type": "uint256"
        }
      ],
      "payable": false,
      "stateMutability": "view",
      "type": "function"
    },
    {
      "constant": true,
      "inputs": [],
      "name": "owner",
      "outputs": [
        {
          "name": "",
          "type": "address"
        }
      ],
      "payable": false,
      "stateMutability": "view",
      "type": "function"
    },
    {
      "constant": true,
      "inputs": [],
      "name": "symbol",
      "outputs": [
        {
          "name": "",
          "type": "string"
        }
      ],
      "payable": false,
      "stateMutability": "view",
      "type": "function"
    },
    {
      "constant": false,
      "inputs": [
        {
          "name": "_to",
          "type": "address"
        },
        {
          "name": "_amount",
          "type": "uint256"
        }
      ],
      "name": "transfer",
      "outputs": [
        {
          "name": "success",
          "type": "bool"
        }
      ],
      "payable": false,
      "stateMutability": "nonpayable",
      "type": "function"
    },
    {
      "constant": true,
      "inputs": [
        {
          "name": "_owner",
          "type": "address"
        },
        {
          "name": "_spender",
          "type": "address"
        }
      ],
      "name": "allowance",
      "outputs": [
        {
          "name": "remaining",
          "type": "uint256"
        }
      ],
      "payable": false,
      "stateMutability": "view",
      "type": "function"
    },
    {
      "constant": false,
      "inputs": [
        {
          "name": "ethers",
          "type": "uint256"
        }
      ],
      "name": "withdrawEthers",
      "outputs": [
        {
          "name": "ok",
          "type": "bool"
        }
      ],
      "payable": false,
      "stateMutability": "nonpayable",
      "type": "function"
    },
    {
      "inputs": [
        {
          "name": "_name",
          "type": "string"
        },
        {
          "name": "_symbol",
          "type": "string"
        },
        {
          "name": "_decimals",
          "type": "uint8"
        }
      ],
      "payable": false,
      "stateMutability": "nonpayable",
      "type": "constructor"
    },
    {
      "payable": true,
      "stateMutability": "payable",
      "type": "fallback"
    },
    {
      "anonymous": false,
      "inputs": [
        {
          "indexed": true,
          "name": "_owner",
          "type": "address"
        },
        {
          "indexed": false,
          "name": "_amount",
          "type": "uint256"
        }
      ],
      "name": "TokensCreated",
      "type": "event"
    },
    {
      "anonymous": false,
      "inputs": [
        {
          "indexed": true,
          "name": "_from",
          "type": "address"
        },
        {
          "indexed": true,
          "name": "_to",
          "type": "address"
        },
        {
          "indexed": false,
          "name": "_value",
          "type": "uint256"
        }
      ],
      "name": "Transfer",
      "type": "event"
    },
    {
      "anonymous": false,
      "inputs": [
        {
          "indexed": true,
          "name": "_owner",
          "type": "address"
        },
        {
          "indexed": true,
          "name": "_spender",
          "type": "address"
        },
        {
          "indexed": false,
          "name": "_value",
          "type": "uint256"
        }
      ],
      "name": "Approval",
      "type": "event"
    }
  ],
  "bytecode": "0x6060604052341561000f57600080fd5b604051610fd2380380610fd28339810160405280805182019190602001805182019190602001805190602001909190505082600090805190602001906100569291906100d2565b50816001908051906020019061006d9291906100d2565b5080600260006101000a81548160ff021916908360ff16021790555033600260016101000a81548173ffffffffffffffffffffffffffffffffffffffff021916908373ffffffffffffffffffffffffffffffffffffffff160217905550505050610177565b828054600181600116156101000203166002900490600052602060002090601f016020900481019282601f1061011357805160ff1916838001178555610141565b82800160010185558215610141579182015b82811115610140578251825591602001919060010190610125565b5b50905061014e9190610152565b5090565b61017491905b80821115610170576000816000905550600101610158565b5090565b90565b610e4c806101866000396000f3006060604052600436106100af576000357c0100000000000000000000000000000000000000000000000000000000900463ffffffff16806306fdde0314610118578063095ea7b3146101a657806318160ddd1461020057806323b872dd14610229578063313ce567146102a257806370a08231146102d15780638da5cb5b1461031e57806395d89b4114610373578063a9059cbb14610401578063dd62ed3e1461045b578063f4206706146104c7575b6000341115610116573460056000828254019250508190555034600360003373ffffffffffffffffffffffffffffffffffffffff1673ffffffffffffffffffffffffffffffffffffffff168152602001908152602001600020600082825401925050819055505b005b341561012357600080fd5b61012b610502565b6040518080602001828103825283818151815260200191508051906020019080838360005b8381101561016b578082015181840152602081019050610150565b50505050905090810190601f1680156101985780820380516001836020036101000a031916815260200191505b509250505060405180910390f35b34156101b157600080fd5b6101e6600480803573ffffffffffffffffffffffffffffffffffffffff169060200190919080359060200190919050506105a0565b604051808215151515815260200191505060405180910390f35b341561020b57600080fd5b610213610692565b6040518082815260200191505060405180910390f35b341561023457600080fd5b610288600480803573ffffffffffffffffffffffffffffffffffffffff1690602001909190803573ffffffffffffffffffffffffffffffffffffffff1690602001909190803590602001909190505061069c565b604051808215151515815260200191505060405180910390f35b34156102ad57600080fd5b6102b56109a3565b604051808260ff1660ff16815260200191505060405180910390f35b34156102dc57600080fd5b610308600480803573ffffffffffffffffffffffffffffffffffffffff169060200190919050506109b6565b6040518082815260200191505060405180910390f35b341561032957600080fd5b6103316109ff565b604051808273ffffffffffffffffffffffffffffffffffffffff1673ffffffffffffffffffffffffffffffffffffffff16815260200191505060405180910390f35b341561037e57600080fd5b610386610a25565b6040518080602001828103825283818151815260200191508051906020019080838360005b838110156103c65780820151818401526020810190506103ab565b50505050905090810190601f1680156103f35780820380516001836020036101000a031916815260200191505b509250505060405180910390f35b341561040c57600080fd5b610441600480803573ffffffffffffffffffffffffffffffffffffffff16906020019091908035906020019091905050610ac3565b604051808215151515815260200191505060405180910390f35b341561046657600080fd5b6104b1600480803573ffffffffffffffffffffffffffffffffffffffff1690602001909190803573ffffffffffffffffffffffffffffffffffffffff16906020019091905050610cb7565b6040518082815260200191505060405180910390f35b34156104d257600080fd5b6104e86004808035906020019091905050610d3e565b604051808215151515815260200191505060405180910390f35b60008054600181600116156101000203166002900480601f0160208091040260200160405190810160405280929190818152602001828054600181600116156101000203166002900480156105985780601f1061056d57610100808354040283529160200191610598565b820191906000526020600020905b81548152906001019060200180831161057b57829003601f168201915b505050505081565b600081600460003373ffffffffffffffffffffffffffffffffffffffff1673ffffffffffffffffffffffffffffffffffffffff16815260200190815260200160002060008573ffffffffffffffffffffffffffffffffffffffff1673ffffffffffffffffffffffffffffffffffffffff168152602001908152602001600020819055508273ffffffffffffffffffffffffffffffffffffffff163373ffffffffffffffffffffffffffffffffffffffff167f8c5be1e5ebec7d5bd14f71427d1e84f3dd0314c0f7b2291e5b200ac8c7c3b925846040518082815260200191505060405180910390a36001905092915050565b6000600554905090565b600081600360008673ffffffffffffffffffffffffffffffffffffffff1673ffffffffffffffffffffffffffffffffffffffff1681526020019081526020016000205410158015610769575081600460008673ffffffffffffffffffffffffffffffffffffffff1673ffffffffffffffffffffffffffffffffffffffff16815260200190815260200160002060003373ffffffffffffffffffffffffffffffffffffffff1673ffffffffffffffffffffffffffffffffffffffff1681526020019081526020016000205410155b80156107755750600082115b80156108005750600360008473ffffffffffffffffffffffffffffffffffffffff1673ffffffffffffffffffffffffffffffffffffffff1681526020019081526020016000205482600360008673ffffffffffffffffffffffffffffffffffffffff1673ffffffffffffffffffffffffffffffffffffffff1681526020019081526020016000205401115b156109975781600360008673ffffffffffffffffffffffffffffffffffffffff1673ffffffffffffffffffffffffffffffffffffffff1681526020019081526020016000206000828254039250508190555081600460008673ffffffffffffffffffffffffffffffffffffffff1673ffffffffffffffffffffffffffffffffffffffff16815260200190815260200160002060003373ffffffffffffffffffffffffffffffffffffffff1673ffffffffffffffffffffffffffffffffffffffff1681526020019081526020016000206000828254039250508190555081600360008573ffffffffffffffffffffffffffffffffffffffff1673ffffffffffffffffffffffffffffffffffffffff168152602001908152602001600020600082825401925050819055508273ffffffffffffffffffffffffffffffffffffffff168473ffffffffffffffffffffffffffffffffffffffff167fddf252ad1be2c89b69c2b068fc378daa952ba7f163c4a11628f55a4df523b3ef846040518082815260200191505060405180910390a36001905061099c565b600090505b9392505050565b600260009054906101000a900460ff1681565b6000600360008373ffffffffffffffffffffffffffffffffffffffff1673ffffffffffffffffffffffffffffffffffffffff168152602001908152602001600020549050919050565b600260019054906101000a900473ffffffffffffffffffffffffffffffffffffffff1681565b60018054600181600116156101000203166002900480601f016020809104026020016040519081016040528092919081815260200182805460018160011615610100020316600290048015610abb5780601f10610a9057610100808354040283529160200191610abb565b820191906000526020600020905b815481529060010190602001808311610a9e57829003601f168201915b505050505081565b600081600360003373ffffffffffffffffffffffffffffffffffffffff1673ffffffffffffffffffffffffffffffffffffffff1681526020019081526020016000205410158015610b145750600082115b8015610b9f5750600360008473ffffffffffffffffffffffffffffffffffffffff1673ffffffffffffffffffffffffffffffffffffffff1681526020019081526020016000205482600360008673ffffffffffffffffffffffffffffffffffffffff1673ffffffffffffffffffffffffffffffffffffffff1681526020019081526020016000205401115b15610cac5781600360003373ffffffffffffffffffffffffffffffffffffffff1673ffffffffffffffffffffffffffffffffffffffff1681526020019081526020016000206000828254039250508190555081600360008573ffffffffffffffffffffffffffffffffffffffff1673ffffffffffffffffffffffffffffffffffffffff168152602001908152602001600020600082825401925050819055508273ffffffffffffffffffffffffffffffffffffffff163373ffffffffffffffffffffffffffffffffffffffff167fddf252ad1be2c89b69c2b068fc378daa952ba7f163c4a11628f55a4df523b3ef846040518082815260200191505060405180910390a360019050610cb1565b600090505b92915050565b6000600460008473ffffffffffffffffffffffffffffffffffffffff1673ffffffffffffffffffffffffffffffffffffffff16815260200190815260200160002060008373ffffffffffffffffffffffffffffffffffffffff1673ffffffffffffffffffffffffffffffffffffffff16815260200190815260200160002054905092915050565b6000600260019054906101000a900473ffffffffffffffffffffffffffffffffffffffff1673ffffffffffffffffffffffffffffffffffffffff163373ffffffffffffffffffffffffffffffffffffffff16141515610d9c57600080fd5b813073ffffffffffffffffffffffffffffffffffffffff1631101515610e1a57600260019054906101000a900473ffffffffffffffffffffffffffffffffffffffff1673ffffffffffffffffffffffffffffffffffffffff166108fc839081150290604051600060405180830381858888f193505050509050610e1b565b5b9190505600a165627a7a7230582005b28187452bcc4ea00d9f49cd3aa784edb8a6ca8ff33405408ffa010060f9e30029",
  "source": "pragma solidity ^0.4.2;\n\n// ----------------------------------------------------------------------------------------------\n// Basic ERC20 Token Contract For **TESTING ONLY** on Testnet or Dev blockchain.\n//\n// Enjoy. (c) Bok Consulting Pty Ltd 2016. The MIT Licence.\n// ----------------------------------------------------------------------------------------------\n\n// ERC Token Standard #20 Interface\n// https://github.com/ethereum/EIPs/issues/20\ncontract ERC20Interface {\n\n    // Get the total token supply\n    function totalSupply() constant returns (uint256 totalSupply);\n\n    // Get the account balance of another account with address _owner\n    function balanceOf(address _owner) constant returns (uint256 balance);\n\n    // Send _value amount of tokens to address _to\n    function transfer(address _to, uint256 _value) returns (bool success);\n\n    // Send _value amount of tokens from address _from to address _to\n    // The transferFrom method is used for a withdraw workflow, allowing contracts to send\n    // tokens on your behalf, for example to \"deposit\" to a contract address and/or to charge\n    // fees in sub-currencies; the command should fail unless the _from account has\n    // deliberately authorized the sender of the message via some mechanism; we propose\n    // these standardized APIs for approval:\n    function transferFrom(address _from, address _to, uint256 _value) returns (bool success);\n\n    // Allow _spender to withdraw from your account, multiple times, up to the _value amount.\n    // If this function is called again it overwrites the current allowance with _value.\n    function approve(address _spender, uint256 _value) returns (bool success);\n\n    // Returns the amount which _spender is still allowed to withdraw from _owner\n    function allowance(address _owner, address _spender) constant returns (uint256 remaining);\n\n    // Triggered when tokens are transferred.\n    event Transfer(address indexed _from, address indexed _to, uint256 _value);\n\n    // Triggered whenever approve(address _spender, uint256 _value) is called.\n    event Approval(address indexed _owner, address indexed _spender, uint256 _value);\n}\n\ncontract TestERC20Token is ERC20Interface {\n\n    string public name;\n    string public symbol;\n    uint8 public decimals;\n\n    // Owner of this contract\n    address public owner;\n\n    // Balances for each account\n    mapping(address => uint256) balances;\n\n    // Owner of account approves the transfer of an amount to another account\n    mapping(address => mapping (address => uint256)) allowed;\n\n    // Total supply\n    uint256 _totalSupply;\n\n    // Functions with this modifier can only be executed by the owner\n    modifier onlyOwner() {\n        if (msg.sender != owner) {\n            throw;\n        }\n        _;\n    }\n\n    // Constructor\n    function TestERC20Token(string _name, string _symbol, uint8 _decimals) {\n        name = _name;\n        symbol = _symbol;\n        decimals = _decimals;\n        owner = msg.sender;\n    }\n\n    function totalSupply() constant returns (uint256 totalSupply) {\n        totalSupply = _totalSupply;\n    }\n\n    // What is the balance of a particular account?\n    function balanceOf(address _owner) constant returns (uint256 balance) {\n        return balances[_owner];\n    }\n\n    // Send _value amount of tokens to address _to\n    function transfer(address _to, uint256 _amount) returns (bool success) {\n        if (balances[msg.sender] >= _amount\n            && _amount > 0\n            && balances[_to] + _amount > balances[_to]) {\n            balances[msg.sender] -= _amount;\n            balances[_to] += _amount;\n            Transfer(msg.sender, _to, _amount);\n            return true;\n        } else {\n            return false;\n        }\n    }\n\n    // Allow _spender to withdraw from your account, multiple times, up to the\n    // _value amount. If this function is called again it overwrites the\n    // current allowance with _value.\n    function approve(\n        address _spender,\n        uint256 _amount\n    ) returns (bool success) {\n        allowed[msg.sender][_spender] = _amount;\n        Approval(msg.sender, _spender, _amount);\n        return true;\n    }\n\n    // Spender of tokens transfer an amount of tokens from the token owner's\n    // balance to the spender's account. The owner of the tokens must already\n    // have approve(...)-d this transfer\n    function transferFrom(\n        address _from,\n        address _to,\n        uint256 _amount\n    ) returns (bool success) {\n        if (balances[_from] >= _amount\n            && allowed[_from][msg.sender] >= _amount\n            && _amount > 0\n            && balances[_to] + _amount > balances[_to]) {\n            balances[_from] -= _amount;\n            allowed[_from][msg.sender] -= _amount;\n            balances[_to] += _amount;\n            Transfer(_from, _to, _amount);\n            return true;\n        } else {\n            return false;\n        }\n    }\n\n    function allowance(address _owner, address _spender) constant returns (uint256 remaining) {\n        return allowed[_owner][_spender];\n    }\n\n    function () payable {\n        if (msg.value > 0) {\n            _totalSupply += msg.value;\n            balances[msg.sender] += msg.value;\n        }\n    }\n\n    function withdrawEthers(uint256 ethers) onlyOwner returns (bool ok) {\n        if (this.balance >= ethers) {\n            return owner.send(ethers);\n        }\n    }\n\n    // Triggered when fiat currency is converted to tokens\n    event TokensCreated(address indexed _owner, uint256 _amount);\n}\n",
  "sourcePath": "/home/alvin/EthTokenTrader/contracts/TestERC20Token.sol",
  "compiler": {
    "name": "solc",
    "version": "0.4.18+commit.9cf6e910.Emscripten.clang"
  },
  "schemaVersion": "1.0.1",
  "updatedAt": "2018-01-31T08:24:05.882Z"
}